:020000040000FA
:100000000C9461000C9473000C9473000C947300B6
:100010000C9473000C9473000C9473000C94730094
:100020000C9473000C9473000C9473000C94730084
:100030000C9473000C9473000C9473000C94730074
:100040000C9427010C9473000C9473000C947300AF
:100050000C9473000C9473000C9473000C94730054
:100060000C9473000C947300000000002300260021
:10007000290000000008000201000003040700003E
:1000800000000000000000000000250028002B00F8
:1000900000000000240027002A00040404040404D3
:1000A0000404020202020202030303030303010227
:1000B00004081020408001020408102001020408F6
:1000C000102011241FBECFEFD8E0DEBFCDBF21E04E
:1000D000A0E0B1E001C01D92AD30B207E1F70E948F
:1000E00071010C94CB030C940000833081F028F450
:1000F000813099F08230A9F008958730A9F08830D6
:10010000C9F08430B1F4809180008F7D03C080916C
:1001100080008F7780938000089584B58F7784BDA9
:10012000089584B58F7DFBCF8091B0008F77809349
:10013000B00008958091B0008F7DF9CF8F929F928B
:10014000AF92BF92CF92DF92EF92FF920F931F93E5
:10015000CF93DF932FB7F894C0900901D0900A0194
:10016000E0900B01F0900C012FBF00910001109165
:100170000101209102013091030146015701801ACB
:10018000910AA20AB30A95018401061717072807E6
:10019000390708F44AC0C0920001D0920101E092F0
:1001A0000201F09203012FE7C22E20E0D22EF601C9
:1001B00084913BEBE32E30E0F32EF7010491C7EA84
:1001C000D0E0FE011491112309F43CC081110E947A
:1001D0007500E12FF0E0EE0FFF1FE859FF4FA591EA
:1001E000B4918C91082391E080E009F490E0092F0C
:1001F000182FF6018491F701E490FE01C491CC23FD
:10020000A1F081110E947500EC2FF0E0EE0FFF1FAE
:10021000EA57FF4FA591B4918FB7F8949C91012BA9
:10022000A1F0E094E922EC928FBFDF91CF911F9172
:100230000F91FF90EF90DF90CF90BF90AF909F9085
:100240008F90089510E000E0D4CFE92AECCF1F9200
:100250000F920FB60F9211242F933F938F939F937A
:10026000AF93BF938091090190910A01A0910B0176
:10027000B0910C013091080123E0230F2D3758F580
:100280000196A11DB11D209308018093090190934F
:100290000A01A0930B01B0930C018091040190918D
:1002A0000501A0910601B09107010196A11DB11DA4
:1002B0008093040190930501A0930601B093070178
:1002C000BF91AF919F918F913F912F910F900FBE52
:1002D0000F901F90189526E8230F0296A11DB11DBF
:1002E000D2CF789484B5826084BD84B5816084BDAA
:1002F00085B5826085BD85B5816085BD80916E00C4
:10030000816080936E0010928100809181008260F4
:100310008093810080918100816080938100809131
:1003200080008160809380008091B1008460809320
:10033000B1008091B00081608093B00080917A001C
:10034000846080937A0080917A00826080937A0042
:1003500080917A00816080937A0080917A00806831
:1003600080937A001092C100ECEBF0E02491E8EA6F
:10037000F0E084918823C1F090E0880F991FFC0180
:10038000E057FF4FC591D491FC01EA57FF4FA5916B
:10039000B4919FB7F8948881E22FE0958E238883EB
:1003A0008C91E823EC939FBFEBEBF0E02491E7EA1C
:1003B000F0E08491882399F090E0880F991FFC0168
:1003C000E057FF4FA591B491FC01EA57FF4F85918B
:1003D00094918FB7F894EC91E22BEC938FBF10E4DB
:1003E000C0E0D0E010937C0080917A00806480931C
:1003F0007A0080917A0086FDFCCF60917800709140
:100400007900072E000C880B990B0E94D20220E085
:1004100030EC4FE754E40E94280220E030E04AEF3D
:1004200053E40E945E030E949A026E3171055CF4EF
:100430006AEF70E080E090E00E949E00209791F2C9
:100440000E940000CFCF64EF71E080E090E0F4CF35
:100450000E943C020C9424030E941D0358F00E9449
:10046000160340F029F45F3F29F00C940D0351115D
:100470000C9458030C9413030E94350368F39923DA
:10048000B1F3552391F3951B550BBB27AA27621790
:100490007307840738F09F5F5F4F220F331F441F9D
:1004A000AA1FA9F335D00E2E3AF0E0E832D09150D1
:1004B0005040E695001CCAF72BD0FE2F29D0660FBE
:1004C000771F881FBB1F261737074807AB07B0E801
:1004D00009F0BB0B802DBF01FF2793585F4F3AF007
:1004E0009E3F510578F00C940D030C9458035F3F28
:1004F000E4F3983ED4F3869577956795B795F7958D
:100500009F5FC9F7880F911D9695879597F9089574
:10051000E1E0660F771F881FBB1F62177307840710
:10052000BA0720F0621B730B840BBA0BEE1F88F71F
:10053000E09508950E94A1026894B1110C945803AB
:1005400008950E943D0388F09F5798F0B92F99278E
:10055000B751B0F0E1F0660F771F881F991F1AF0AE
:10056000BA95C9F714C0B13091F00E945703B1E0B9
:1005700008950C945703672F782F8827B85F39F0B8
:10058000B93FCCF3869577956795B395D9F73EF447
:1005900090958095709561957F4F8F4F9F4F0895EF
:1005A000E89409C097FB3EF490958095709561950D
:1005B0007F4F8F4F9F4F9923A9F0F92F96E9BB27C3
:1005C0009395F695879577956795B795F111F8CF3F
:1005D000FAF4BB0F11F460FF1BC06F5F7F4F8F4FAA
:1005E0009F4F16C0882311F096E911C0772321F0A0
:1005F0009EE8872F762F05C0662371F096E8862F38
:1006000070E060E02AF09A95660F771F881FDAF78E
:10061000880F9695879597F9089597F99F6780E8D1
:1006200070E060E008959FEF80EC089500240A9444
:100630001616170618060906089500240A941216BD
:100640001306140605060895092E0394000C11F4F0
:10065000882352F0BB0F40F4BF2B11F460FF04C09D
:100660006F5F7F4F8F4F9F4F089557FD9058440FF6
:10067000551F59F05F3F71F04795880F97FB991F01
:1006800061F09F3F79F087950895121613061406BE
:10069000551FF2CF4695F1DF08C01616170618064B
:1006A000991FF1CF86957105610508940895E89426
:1006B000BB2766277727CB0197F908950E9471031E
:1006C0000C9424030E94160338F00E941D0320F0AE
:1006D000952311F00C940D030C94130311240C9426
:1006E00058030E94350370F3959FC1F3950F50E0B6
:1006F000551F629FF001729FBB27F00DB11D639FD4
:10070000AA27F00DB11DAA1F649F6627B00DA11D79
:10071000661F829F2227B00DA11D621F739FB00D1F
:10072000A11D621F839FA00D611D221F749F33278F
:10073000A00D611D231F849F600D211D822F762F28
:100740006A2F11249F5750409AF0F1F088234AF005
:10075000EE0FFF1FBB1F661F771F881F9150504071
:10076000A9F79E3F510580F00C940D030C9458039B
:100770005F3FE4F3983ED4F3869577956795B795F8
:10078000F795E7959F5FC1F7FE2B880F911D969512
:0A079000879597F90895F894FFCFBC
:107E0000112484B714BE81FFF0D085E080938100F7
:107E100082E08093C00088E18093C10086E0809377
:107E2000C20080E18093C4008EE0C9D0259A86E02C
:107E300020E33CEF91E0309385002093840096BBD3
:107E4000B09BFECF1D9AA8958150A9F7CC24DD24C4
:107E500088248394B5E0AB2EA1E19A2EF3E0BF2EE7
:107E6000A2D0813461F49FD0082FAFD0023811F036
:107E7000013811F484E001C083E08DD089C08234E0
:107E800011F484E103C0853419F485E0A6D080C0E4
:107E9000853579F488D0E82EFF2485D0082F10E0AE
:107EA000102F00270E291F29000F111F8ED06801E7
:107EB0006FC0863521F484E090D080E0DECF843638
:107EC00009F040C070D06FD0082F6DD080E0C81688
:107ED00080E7D80618F4F601B7BEE895C0E0D1E017
:107EE00062D089930C17E1F7F0E0CF16F0E7DF06D8
:107EF00018F0F601B7BEE89568D007B600FCFDCFD4
:107F0000A601A0E0B1E02C9130E011968C91119780
:107F100090E0982F8827822B932B1296FA010C0160
:107F200087BEE89511244E5F5F4FF1E0A038BF0790
:107F300051F7F601A7BEE89507B600FCFDCF97BE46
:107F4000E89526C08437B1F42ED02DD0F82E2BD052
:107F50003CD0F601EF2C8F010F5F1F4F84911BD097
:107F6000EA94F801C1F70894C11CD11CFA94CF0C13
:107F7000D11C0EC0853739F428D08EE10CD085E9AC
:107F80000AD08FE07ACF813511F488E018D01DD067
:107F900080E101D065CF982F8091C00085FFFCCF94
:107FA0009093C60008958091C00087FFFCCF809118
:107FB000C00084FD01C0A8958091C6000895E0E648
:107FC000F0E098E1908380830895EDDF803219F02E
:107FD00088E0F5DFFFCF84E1DECF1F93182FE3DFCA
:107FE0001150E9F7F2DF1F91089580E0E8DFEE27F6
:047FF000FF270994CA
:027FFE00040479
:00000001FF
